:10000000FFC000002BC1000029C1000027C1000073
:1000100025C1000023C1000021C100001FC1000054
:100020001DC100001BC1000019C1000017C1000064
:1000300015C1000013C1000011C100000FC1000074
:100040000DC100000BC1000009C1000007C1000084
:1000500005C1000003C1000001C100001FC3000072
:10006000FDC00000E5C20000BAC20000F7C00000F9
:10007000F5C00000F3C00000F1C00000EFC00000B8
:10008000EDC00000EBC00000E9C00000E7C00000C8
:10009000E5C00000E3C00000E1C00000DFC00000D8
:1000A000DDC00000DBC00000D9C00000D7C00000E8
:1000B000D5C00000D3C00000D1C00000CFC00000F8
:1000C000CDC00000CBC00000C9C00000C7C0000008
:1000D000C5C00000C3C00000C1C00000BFC0000018
:1000E000BDC0000008000000BE922449123EABAA29
:1000F000AA2ABECDCCCC4C3E00000080BEABAAAA42
:10010000AA3E00000000BF000000803F0000000089
:1001100000084178D3BB4387D1133D190E3CC3BDC2
:100120004282AD2B3E68EC8276BED98FE1A93E4C6F
:1001300080EFFFBE01C4FF7F3F0000000000000011
:100140002200250028002B002E003100340002017F
:100150000000050108010B01000021002400270018
:100160002A002D00300033000101000004010701C6
:100170000A0105050505070508080808020202022C
:100180000A0A080804040404010101010101010133
:100190000303030303030303040707070C0C0C0CFE
:1001A0000C0C0C0C020202020606060606060606E7
:1001B0000B0B0B0B0B0B0B0B010210202008081074
:1001C00020401020408002010201080402010102C7
:1001D00004081020408080402010080402018004A0
:1001E00002018040201008040201080402010102FB
:1001F00004081020408001020408102040804F05B0
:1002000011241FBECFEFD1E2DEBFCDBF00E00CBF97
:1002100012E0A0E0B2E0E4E7F0E100E00BBF02C0D2
:1002200007900D92A232B107D9F722E0A2E2B2E024
:1002300001C01D92A83CB207E1F710E0C0E0D1E098
:1002400000E005C021970109802FFE0109D7CF3FAB
:10025000D10780E00807B1F76BD20AC7D1CEAF92C1
:10026000BF92CF92DF92EF92FF920F931F93CF93A3
:10027000DF936C017B018B01040F151FEB015E0105
:10028000AE18BF08C017D10759F06991D601ED919A
:10029000FC910190F081E02DC6011995892B79F729
:1002A000C501DF91CF911F910F91FF90EF90DF90EB
:1002B000CF90BF90AF900895FC01538D448D252FB2
:1002C00030E0842F90E0821B930B541710F0CF96F0
:1002D000089501970895FC01918D828D981761F022
:1002E000A28DAE0FBF2FB11D5D968C91928D9F5F39
:1002F0009F73928F90E008958FEF9FEF0895FC0118
:10030000918D828D981731F0828DE80FF11D858DCA
:1003100090E008958FEF9FEF0895FC01918D228D5D
:10032000892F90E0805C9F4F821B91098F739927E2
:1003300008958BE292E0F1DF21E0892B09F420E0BF
:10034000822F0895FC01A48DA80FB92FB11DA35AC7
:10035000BF4F2C91848D90E001968F739927848FE5
:10036000A689B7892C93A089B1898C918370806408
:100370008C93938D848D981306C00288F389E02DA9
:1003800080818F7D80830895EF92FF920F931F935A
:10039000CF93DF93EC0181E0888F9B8D8C8D981338
:1003A0001AC0E889F989808185FF15C09FB7F89444
:1003B000EE89FF896083E889F98980818370806490
:1003C00080839FBF81E090E0DF91CF911F910F91DB
:1003D000FF90EF900895F62E0B8D10E00F5F1F4FEA
:1003E0000F731127E02E8C8D8E110BC00FB607FCFA
:1003F000FACFE889F989808185FFF5CFCE01A2DFA8
:10040000F2CFEB8DEC0FFD2FF11DE35AFF4FF08281
:100410009FB7F8940B8FEA89FB8980818062D0CFE7
:10042000CF93DF93EC01888D8823B1F0AA89BB8933
:10043000E889F9898C9185FD03C0808186FD0CC017
:100440000FB607FCF7CF8C9185FFF2CF808185FF37
:10045000EDCFCE0177DFEACFDF91CF91089580E035
:1004600090E0892B21F065DF81110E94000080E07F
:1004700090E0892B49F080E090E0892B29F00E94E0
:10048000000081110E94000080E090E0892B49F07B
:1004900080E090E0892B29F00E94000081110E94E9
:1004A000000080E090E0892B49F080E090E0892B0B
:1004B00029F00E94000081110C94000008958633F9
:1004C00008F0865320917B00982F9870277F922BFD
:1004D00090937B008770806480937C0080917A0089
:1004E000806480937A0080917A0086FDFCCF8091B1
:1004F00078009091790008953FB7F8948091230295
:1005000090912402A0912502B091260226B5A89BC5
:1005100005C02F3F19F00196A11DB11D3FBFBA2F95
:10052000A92F982F8827BC01CD01620F711D811D55
:10053000911D42E0660F771F881F991F4A95D1F7DA
:100540000895FC0101900020E9F73197AF01481BA5
:10055000590BBC018BE292E082CE8F929F92AF92B8
:10056000BF920F931F93CF93DF93CDB7DEB7A197C1
:100570000FB6F894DEBF0FBECDBF19A2423008F40B
:100580004AE08E010F5D1F4F842E912CB12CA12CBF
:10059000A501940143D5E62FB901CA01EA30ECF474
:1005A000E05DD801EE938D01232B242B252B81F7C1
:1005B00090E080E0109711F0CD01C3DFA1960FB657
:1005C000F894DEBF0FBECDBFDF91CF911F910F9189
:1005D000BF90AF909F908F900895E95CE2CF1F92FB
:1005E0000F920FB60F9211240BB60F922F933F93D9
:1005F0004F935F936F937F938F939F93AF93BF932B
:10060000EF93FF938BE292E09DDEFF91EF91BF911C
:10061000AF919F918F917F916F915F914F913F919A
:100620002F910F900BBE0F900FBE0F901F9018953B
:100630001F920F920FB60F9211240BB60F922F93A9
:100640008F939F93EF93FF93E0913B02F0913C02D5
:100650008081E0914102F091420282FD1DC09081B3
:10066000809144028F5F8F7320914502821741F081
:10067000E0914402F0E0E55DFD4F958F80934402E8
:10068000FF91EF919F918F912F910F900BBE0F9043
:100690000FBE0F901F9018958081F2CF1F920F927E
:1006A0000FB60F9211242F933F938F939F93AF9385
:1006B000BF938091270290912802A0912902B091C6
:1006C0002A023091220223E0230F2D3758F501969C
:1006D000A11DB11D2093220280932702909328022E
:1006E000A0932902B0932A028091230290912402C0
:1006F000A0912502B09126020196A11DB11D809303
:10070000230290932402A0932502B0932602BF9166
:10071000AF919F918F913F912F910F900FBE0F90AE
:100720001F90189526E8230F0296A11DB11DD2CF68
:10073000789484B5826084BD84B5816084BD85B5BC
:10074000826085BD85B5816085BD80916E008160C8
:1007500080936E001092810080918100826080936E
:100760008100809181008160809381008091800070
:100770008160809380008091B10084608093B1009B
:100780008091B00081608093B00080919100826080
:10079000809391008091910081608093910080917D
:1007A00090008160809390008091A100826080938E
:1007B000A1008091A10081608093A1008091A000A0
:1007C00081608093A000809121018260809321014B
:1007D00080912101816080932101809120018160BD
:1007E0008093200180917A00846080937A008091C8
:1007F0007A00826080937A0080917A008160809391
:100800007A0080917A00806880937A001092C1000B
:10081000E5ECF1E02491EFE7F1E08491882399F091
:1008200090E0880F991FFC01E85AFE4FA591B49102
:10083000FC01E25CFE4F859194918FB7F894EC91A6
:10084000E22BEC938FBFE0913B02F0913C0282E0FF
:100850008083E0913702F09138021082E0913902F2
:10086000F0913A028FEC808310924302E0913F02B4
:10087000F091400286E08083E0913D02F0913E02DB
:10088000808180618083E0913D02F0913E02808111
:1008900088608083E0913D02F0913E028081806813
:1008A0008083E0913D02F0913E0280818F7D8083C4
:1008B0008FB7F89440912702509128026091290245
:1008C00070912A028FBF8FE0FADD80E0F8DDBC0175
:1008D000990F880B990B0FD220E030E040EA5BE3E0
:1008E00003D39B01AC0160E070E080EA90E46DD13D
:1008F00020E030E040E85FE3FFD09B01AC0160E026
:1009000070E48CE196E461D120E030E44CE156E4FF
:100910005CD1AAD22BEB37E845E551E4EED09B0140
:10092000AC0160E070E988E795E44FD120E030E861
:1009300048E853E4E1D06B017C014B015C01AC0160
:100940009B0135D3882359F182E192E0FADD8EE1F3
:1009500092E0F7DDD1DD4B015C0188EEC82E83E02B
:10096000D82EE12CF12CC8DD681979098A099B0978
:10097000683E734081059105B0F321E0C21AD108A9
:10098000E108F10888EE880E83E0981EA11CB11CD6
:10099000C114D104E104F10431F761DD89CF2601EE
:1009A0003701E89477F82FEF3FEF4FE75FE7C30198
:1009B000B201FDD281110CC02FEF3FEF4FE75FE78F
:1009C000C301B201FED018161CF486E192E0BECF3E
:1009D0002FEF3FEF4FE75FE4C701B6013CD2181697
:1009E0001CF48AE192E0B2CF2FEF3FEF4FE75FECCC
:1009F000C701B601E6D087FDF4CF20E030E0A901C1
:100A0000C701B601DED087FF0AC06DE28BE292E03B
:100A1000BBDC46015701B7FAB094B7F8B0942AE0AE
:100A200037ED43EA5BE3C501B40167D04B015C01DC
:100A300034D16B017C015DD19B01AC01C501B401D6
:100A40005BD04B015C014AE0C701B60186DD6EE276
:100A50008BE292E099DC20E030E040E251E4C50115
:100A6000B40142D24B015C0118D16B01F12CE12C95
:100A70004AE0C701B60171DDC701B6013AD19B0159
:100A8000AC01C501B40138D020E030E040E251E4CF
:100A90002BD203D190E080E04AE05FDD58CFEBE25B
:100AA000F2E01382128288EE93E0A0E0B0E084834B
:100AB0009583A683B78384E092E09183808385EC5D
:100AC00090E09587848784EC90E09787868780EC18
:100AD00090E0918B808B81EC90E0938B828B82EC09
:100AE00090E0958B848B86EC90E0978B868B118EB3
:100AF000128E138E148E08955058BB27AA270ED03D
:100B000070C161D130F066D120F031F49F3F11F413
:100B10001EF456C10EF4E095E7FB4CC1E92F72D1EB
:100B200080F3BA17620773078407950718F071F40A
:100B30009EF58AC10EF4E0950B2EBA2FA02D0B0165
:100B4000B90190010C01CA01A0011124FF27591B12
:100B500099F0593F50F4503E68F11A16F040A22F18
:100B6000232F342F4427585FF3CF46953795279589
:100B7000A795F0405395C9F77EF41F16BA0B620B88
:100B8000730B840BBAF09150A1F0FF0FBB1F661FCF
:100B9000771F881FC2F70EC0BA0F621F731F841F12
:100BA00048F4879577956795B795F7959E3F08F038
:100BB000B3CF9395880F08F09927EE0F97958795F7
:100BC0000895D4D008F481E008950CD00AC102D170
:100BD00040F0F9D030F021F45F3F19F0EBC0511133
:100BE00034C1EEC00FD198F39923C9F35523B1F363
:100BF000951B550BBB27AA2762177307840738F08C
:100C00009F5F5F4F220F331F441FAA1FA9F333D0EA
:100C10000E2E3AF0E0E830D091505040E695001C9E
:100C2000CAF729D0FE2F27D0660F771F881FBB1F5A
:100C3000261737074807AB07B0E809F0BB0B802D34
:100C4000BF01FF2793585F4F2AF09E3F510568F080
:100C5000B1C0FBC05F3FECF3983EDCF3869577951F
:100C60006795B795F7959F5FC9F7880F911D969582
:100C7000879597F90895E1E0660F771F881FBB1FDE
:100C8000621773078407BA0720F0621B730B840B8B
:100C9000BA0BEE1F88F7E0950895BCD088F09F57F7
:100CA00090F0B92F9927B751A0F0D1F0660F771FB8
:100CB000881F991F1AF0BA95C9F712C0B13081F098
:100CC000C3D0B1E00895C0C0672F782F8827B85FE0
:100CD00039F0B93FCCF3869577956795B395D9F7F9
:100CE0003EF490958095709561957F4F8F4F9F4F03
:100CF0000895E89409C097FB3EF49095809570950F
:100D000061957F4F8F4F9F4F9923A9F0F92F96E957
:100D1000BB279395F695879577956795B795F111CC
:100D2000F8CFFAF4BB0F11F460FF1BC06F5F7F4F69
:100D30008F4F9F4F16C0882311F096E911C077237B
:100D400021F09EE8872F762F05C0662371F096E884
:100D5000862F70E060E02AF09A95660F771F881F53
:100D6000DAF7880F9695879597F90895990F0008F7
:100D7000550FAA0BE0E8FEEF16161706E807F9076D
:100D8000C0F012161306E407F50798F0621B730B08
:100D9000840B950B39F40A2661F0232B242B252B89
:100DA00021F408950A2609F4A140A6958FEF811D2C
:100DB000811D089597F99F6780E870E060E00895CD
:100DC0009FEF80EC089500240A9416161706180663
:100DD0000906089500240A9412161306140605063F
:100DE0000895092E0394000C11F4882352F0BB0FD0
:100DF00040F4BF2B11F460FF04C06F5F7F4F8F4F33
:100E00009F4F089557FD9058440F551F59F05F3F6D
:100E100071F04795880F97FB991F61F09F3F79F01C
:100E200087950895121613061406551FF2CF46959E
:100E3000F1DF08C0161617061806991FF1CF869520
:100E40007105610508940895E894BB276627772704
:100E5000CB0197F908958ADF08F48FEF08950EF01B
:100E6000AAC0AECF6894A6CFD5DFC8F39923D1F33B
:100E7000C6F3DF93CF931F930F93FF92C92FDD2704
:100E800088232AF02197660F771F881FDAF720E062
:100E900030E040E85FEB9FE3883920F0803E30F09F
:100EA00021968F772ADEE4EEF0E003C026DEE1E152
:100EB000F1E08FD08B01BE01EC01FB2E6F57710961
:100EC0007595771F880B990B16DF28E132E741E310
:100ED0005FE316D0AF2D9801AE01FF900F911F91E7
:100EE000CF91DF911BDE7DCF0BD07BCF6CDF28F065
:100EF00071DF18F0952309F05DCF62CF1124A5CFE3
:100F000081DFA0F3959FD1F3950F50E0551F629FAD
:100F1000F001729FBB27F00DB11D639FAA27F00D52
:100F2000B11DAA1F649F6627B00DA11D661F829F79
:100F30002227B00DA11D621F739FB00DA11D621F5E
:100F4000839FA00D611D221F749F3327A00D611D7B
:100F5000231F849F600D211D822F762F6A2F11245D
:100F60009F5750408AF0E1F088234AF0EE0FFF1FB0
:100F7000BB1F661F771F881F91505040A9F79E3FE7
:100F8000510570F017CF61CF5F3FECF3983EDCF373
:100F9000869577956795B795F795E7959F5FC1F724
:100FA000FE2B880F911D9695879597F90895DEDEA3
:100FB000880B990B08959F3F31F0915020F487954D
:100FC00077956795B795880F911D9695879597F9B1
:100FD0000895DF93CF931F930F93FF92EF92DF92C9
:100FE0007B018C01689405C0DA2EEF0189DFFE01D8
:100FF000E894A5912591359145915591AEF3EF0176
:101000008DDDFE019701A801DA9479F7DF90EF906A
:10101000FF900F911F91CF91DF910895A1E21A2EB9
:10102000AA1BBB1BFD010DC0AA1FBB1FEE1FFF1F8C
:10103000A217B307E407F50720F0A21BB30BE40BDC
:10104000F50B661F771F881F991F1A9469F7609523
:101050007095809590959B01AC01BD01CF010895DD
:10106000EE0FFF1F881F8BBF0790F691E02D19949C
:04107000F894FFCF22
:1010740000000000C4012F015C0110028D016B010E
:101084007F016E616E00696E66006F7666000D0A00
:0210940000005A
:00000001FF
