:10000000FFC000002BC1000029C1000027C1000073
:1000100025C1000023C1000021C100001FC1000054
:100020001DC100001BC1000019C1000017C1000064
:1000300015C1000013C1000011C100000FC1000074
:100040000DC100000BC1000009C1000007C1000084
:1000500005C1000003C1000001C10000ABC30000E6
:10006000FDC0000071C3000046C30000F7C00000DF
:10007000F5C00000F3C00000F1C00000EFC00000B8
:10008000EDC00000EBC00000E9C00000E7C00000C8
:10009000E5C00000E3C00000E1C00000DFC00000D8
:1000A000DDC00000DBC00000D9C00000D7C00000E8
:1000B000D5C00000D3C00000D1C00000CFC00000F8
:1000C000CDC00000CBC00000C9C00000C7C0000008
:1000D000C5C00000C3C00000C1C00000BFC0000018
:1000E000BDC0000008000000BE922449123EABAA29
:1000F000AA2ABECDCCCC4C3E00000080BEABAAAA42
:10010000AA3E00000000BF000000803F0000000089
:1001100000084178D3BB4387D1133D190E3CC3BDC2
:100120004282AD2B3E68EC8276BED98FE1A93E4C6F
:1001300080EFFFBE01C4FF7F3F0000000000000011
:100140002200250028002B002E003100340002017F
:100150000000050108010B01000021002400270018
:100160002A002D00300033000101000004010701C6
:100170000A0105050505070508080808020202022C
:100180000A0A080804040404010101010101010133
:100190000303030303030303040707070C0C0C0CFE
:1001A0000C0C0C0C020202020606060606060606E7
:1001B0000B0B0B0B0B0B0B0B010210202008081074
:1001C00020401020408002010201080402010102C7
:1001D00004081020408080402010080402018004A0
:1001E00002018040201008040201080402010102FB
:1001F0000408102040800102040810204080A60559
:1002000011241FBECFEFD1E2DEBFCDBF00E00CBF97
:1002100012E0A0E0B2E0E6E9F1E100E00BBF02C0CD
:1002200007900D92A631B107D9F722E0A6E1B2E01E
:1002300001C01D92A63CB207E1F710E0C0E0D1E09A
:1002400000E005C021970109802FFE019AD7CF3F1A
:10025000D10780E00807B1F7F7D29BC7D1CEAF92A4
:10026000BF92CF92DF92EF92FF920F931F93CF93A3
:10027000DF936C017B018B01040F151FEB015E0105
:10028000AE18BF08C017D10759F06991D601ED919A
:10029000FC910190F081E02DC6011995892B79F729
:1002A000C501DF91CF911F910F91FF90EF90DF90EB
:1002B000CF90BF90AF900895FC01538D448D252FB2
:1002C00030E0842F90E0821B930B541710F0CF96F0
:1002D000089501970895FC01918D828D981761F022
:1002E000A28DAE0FBF2FB11D5D968C91928D9F5F39
:1002F0009F73928F90E008958FEF9FEF0895FC0118
:10030000918D828D981731F0828DE80FF11D858DCA
:1003100090E008958FEF9FEF0895FC01918D228D5D
:10032000892F90E0805C9F4F821B91098F739927E2
:10033000089587E292E0F1DF21E0892B09F420E0C3
:10034000822F0895FC01A48DA80FB92FB11DA35AC7
:10035000BF4F2C91848D90E001968F739927848FE5
:10036000A689B7892C93A089B1898C918370806408
:100370008C93938D848D981306C00288F389E02DA9
:1003800080818F7D80830895EF92FF920F931F935A
:10039000CF93DF93EC0181E0888F9B8D8C8D981338
:1003A0001AC0E889F989808185FF15C09FB7F89444
:1003B000EE89FF896083E889F98980818370806490
:1003C00080839FBF81E090E0DF91CF911F910F91DB
:1003D000FF90EF900895F62E0B8D10E00F5F1F4FEA
:1003E0000F731127E02E8C8D8E110BC00FB607FCFA
:1003F000FACFE889F989808185FFF5CFCE01A2DFA8
:10040000F2CFEB8DEC0FFD2FF11DE35AFF4FF08281
:100410009FB7F8940B8FEA89FB8980818062D0CFE7
:10042000CF93DF93EC01888D8823B1F0AA89BB8933
:10043000E889F9898C9185FD03C0808186FD0CC017
:100440000FB607FCF7CF8C9185FFF2CF808185FF37
:10045000EDCFCE0177DFEACFDF91CF91089580E035
:1004600090E0892B21F065DF81110E94000080E07F
:1004700090E0892B49F080E090E0892B29F00E94E0
:10048000000081110E94000080E090E0892B49F07B
:1004900080E090E0892B29F00E94000081110E94E9
:1004A000000080E090E0892B49F080E090E0892B0B
:1004B00029F00E94000081110C94000008958633F9
:1004C00008F0865320917B00982F9870277F922BFD
:1004D00090937B008770806480937C0080917A0089
:1004E000806480937A0080917A0086FDFCCF8091B1
:1004F00078009091790008953FB7F89480911702A1
:1005000090911802A0911902B0911A0226B5A89BE9
:1005100005C02F3F19F00196A11DB11D3FBFBA2F95
:10052000A92F982F8827BC01CD01620F711D811D55
:10053000911D42E0660F771F881F991F4A95D1F7DA
:1005400008958F929F92AF92BF92CF92DF92EF92D7
:10055000FF92D2DF4B015C0188EEC82E83E0D82EDB
:10056000E12CF12CC9DF681979098A099B09683ED9
:10057000734081059105B0F321E0C21AD108E1086A
:10058000F10888EE880E83E0981EA11CB11CC114EE
:10059000D104E104F10431F7FF90EF90DF90CF90A8
:1005A000BF90AF909F908F9008951F93CF93DF934C
:1005B000EC011091C402F7D2181719F0612FCE0187
:1005C000FAD21091C5022196CE01EDD2181719F07A
:1005D000612FCE01F0D284EC92E0DF91CF911F9198
:1005E00008958F929F92AF92BF920F931F93CF93D4
:1005F000DF93CDB7DEB7A1970FB6F894DEBF0FBE7D
:10060000CDBF19A2423008F44AE08E010F5D1F4FA2
:10061000842E912CB12CA12CA50194017CD5E62F20
:10062000B901CA01EA303CF5E05DD801EE938D01D5
:10063000232B242B252B81F790E080E0109761F08D
:10064000FD0101900020E9F73197AF014A1B5B0BD8
:10065000BD0187E292E003DEA1960FB6F894DEBFFB
:100660000FBECDBFDF91CF911F910F91BF90AF9083
:100670009F908F900895E95CD8CFCF92DF92EF9250
:10068000FF92CF93DF936115710531F4682F87E2F4
:1006900092E07ADEEC011AC06C01990FEE08FF08B7
:1006A0006A30710519F54AE0F7FE21C06DE287E274
:1006B00092E06ADEEC0166277727CB016C197D0991
:1006C0008E099F094AE08DDFC80FD91F42E050E034
:1006D00062E172E087E292E0C2DD8C0F9D1FDF9144
:1006E000CF91FF90EF90DF90CF900895462FC701F4
:1006F000B60177DFCFCF1F920F920FB60F92112462
:100700000BB60F922F933F934F935F936F937F930B
:100710008F939F93AF93BF93EF93FF9387E292E002
:1007200011DEFF91EF91BF91AF919F918F917F91DA
:100730006F915F914F913F912F910F900BBE0F9052
:100740000FBE0F901F9018951F920F920FB60F9229
:1007500011240BB60F922F938F939F93EF93FF93D8
:10076000E0913702F09138028081E0913D02F091F2
:100770003E0282FD1DC09081809140028F5F8F7389
:1007800020914102821741F0E0914002F0E0E95DE2
:10079000FD4F958F80934002FF91EF919F918F9134
:1007A0002F910F900BBE0F900FBE0F901F901895BA
:1007B0008081F2CF1F920F920FB60F9211242F93C8
:1007C0003F938F939F93AF93BF9380911B02909120
:1007D0001C02A0911D02B0911E023091160223E06E
:1007E000230F2D3758F50196A11DB11D2093160238
:1007F00080931B0290931C02A0931D02B0931E02D3
:100800008091170290911802A0911902B0911A02DA
:100810000196A11DB11D8093170290931802A09319
:100820001902B0931A02BF91AF919F918F913F919E
:100830002F910F900FBE0F901F90189526E8230F51
:100840000296A11DB11DD2CF789484B5826084BD7B
:1008500084B5816084BD85B5826085BD85B58160C4
:1008600085BD80916E00816080936E001092810042
:1008700080918100826080938100809181008160FD
:1008800080938100809180008160809380008091BE
:10089000B10084608093B1008091B000816080934A
:1008A000B0008091910082608093910080919100CE
:1008B000816080939100809190008160809390008E
:1008C0008091A10082608093A1008091A10081604D
:1008D0008093A1008091A00081608093A00080910E
:1008E00021018260809321018091210181608093A8
:1008F00021018091200181608093200180917A0004
:10090000846080937A0080917A00826080937A007C
:1009100080917A00816080937A0080917A0080686B
:1009200080937A001092C100E5ECF1E02491EFE7AA
:10093000F1E08491882399F090E0880F991FFC01E1
:10094000E85AFE4FA591B491FC01E25CFE4F8591FF
:1009500094918FB7F894EC91E22BEC938FBFE091D8
:100960003702F091380282E08083E0913302F09107
:1009700034021082E0913502F09136028FEC8083D0
:1009800010923F02E0913B02F0913C0286E08083AE
:10099000E0913902F0913A02808180618083E09198
:1009A0003902F0913A02808188608083E0913902B7
:1009B000F0913A02808180688083E0913902F09161
:1009C0003A0280818F7D808338EE432E33E0532EB0
:1009D000612C712C45E0242E312C2FB7F8946091B6
:1009E0001B0270911C0280911D0290911E022FBF6C
:1009F000A301920190D3CA01B901EDD16B017C0131
:100A0000C0922302D0922402E0922502F0922602A4
:100A1000B1D1CB01B1016CD38C01EC0190932202D6
:100A2000809321028FE04BDD97FD03969595879586
:100A3000959587959093C5028093C40280E03FDD31
:100A4000BC01990F880B990BC8D120E030E040EA37
:100A50005BE3B8D29B01AC0160E070E080EA90E417
:100A600021D120E030E040E85FE3B3D09B01AC014E
:100A700060E070E48CE196E415D120E030E44CE1D4
:100A800056E410D15FD24B015C015BDD012B09F014
:100A90005BC020E030E0A901C701B601FFD0882388
:100AA00009F452C080911F02909120027EDD809156
:100AB0001F029091200279DD00911F021091200207
:100AC0000F5F1F4F1093200200931F022BEB37E89C
:100AD00045E551E4C501B4017DD09B01AC0160E066
:100AE00070E988E795E4DED020E030E848E853E498
:100AF00070D040D1C801C1DD00911F0210912002C9
:100B0000C80151D08093C402C80101964CD0809393
:100B1000C5026AE070E08091C4029091C502ADDD2B
:100B200080911F02909120028115904161F460E054
:100B3000CE0141D02196C11580E1D807C1F71092AE
:100B4000200210921F02FDDC8ADC47CFE7E2F2E0D0
:100B50001382128288EE93E0A0E0B0E08483958354
:100B6000A683B78384E092E09183808385EC90E054
:100B70009587848784EC90E09787868780EC90E067
:100B8000918B808B81EC90E0938B828B82EC90E058
:100B9000958B848B86EC90E0978B868B118E128ED2
:100BA000138E148E0895F999FECF92BD81BDF89AE7
:100BB000992780B50895262FF999FECF1FBA92BDC7
:100BC00081BD20BD0FB6F894FA9AF99A0FBE01962E
:100BD00008955058BB27AA270ED075C166D130F0B2
:100BE0006BD120F031F49F3F11F41EF45BC10EF481
:100BF000E095E7FB51C1E92F77D180F3BA1762077F
:100C000073078407950718F071F49EF58FC10EF4F1
:100C1000E0950B2EBA2FA02D0B01B90190010C010C
:100C2000CA01A0011124FF27591B99F0593F50F424
:100C3000503E68F11A16F040A22F232F342F44277C
:100C4000585FF3CF469537952795A795F040539574
:100C5000C9F77EF41F16BA0B620B730B840BBAF044
:100C60009150A1F0FF0FBB1F661F771F881FC2F7AF
:100C70000EC0BA0F621F731F841F48F487957795C3
:100C80006795B795F7959E3F08F0B3CF9395880F7A
:100C900008F09927EE0F979587950895D9D008F415
:100CA00081E008950CD00FC107D140F0FED030F0A4
:100CB00021F45F3F19F0F0C0511139C1F3C014D1D4
:100CC00098F39923C9F35523B1F3951B550BBB2713
:100CD000AA2762177307840738F09F5F5F4F220FC0
:100CE000331F441FAA1FA9F333D00E2E3AF0E0E8B9
:100CF00030D091505040E695001CCAF729D0FE2F05
:100D000027D0660F771F881FBB1F26173707480796
:100D1000AB07B0E809F0BB0B802DBF01FF2793584C
:100D20005F4F2AF09E3F510568F0B6C000C15F3F9B
:100D3000ECF3983EDCF3869577956795B795F79534
:100D40009F5FC9F7880F911D9695879597F908952C
:100D5000E1E0660F771F881FBB1F621773078407C8
:100D6000BA0720F0621B730B840BBA0BEE1F88F7D7
:100D7000E095089504D06894B111D9C00895BCD00D
:100D800088F09F5790F0B92F9927B751A0F0D1F074
:100D9000660F771F881F991F1AF0BA95C9F712C0FE
:100DA000B13081F0C3D0B1E00895C0C0672F782F73
:100DB0008827B85F39F0B93FCCF38695779567956A
:100DC000B395D9F73EF490958095709561957F4FD6
:100DD0008F4F9F4F0895E89409C097FB3EF490957C
:100DE0008095709561957F4F8F4F9F4F9923A9F004
:100DF000F92F96E9BB279395F69587957795679593
:100E0000B795F111F8CFFAF4BB0F11F460FF1BC0D6
:100E10006F5F7F4F8F4F9F4F16C0882311F096E969
:100E200011C0772321F09EE8872F762F05C0662317
:100E300071F096E8862F70E060E02AF09A95660FD0
:100E4000771F881FDAF7880F9695879597F9089589
:100E5000990F0008550FAA0BE0E8FEEF16161706CB
:100E6000E807F907C0F012161306E407F50798F033
:100E7000621B730B840B950B39F40A2661F0232B4C
:100E8000242B252B21F408950A2609F4A140A695C8
:100E90008FEF811D811D089597F99F6780E870E0AD
:100EA00060E008959FEF80EC089500240A941616E0
:100EB000170618060906089500240A941216130648
:100EC000140605060895092E0394000C11F48823D6
:100ED00052F0BB0F40F4BF2B11F460FF04C06F5FF2
:100EE0007F4F8F4F9F4F089557FD9058440F551FC8
:100EF00059F05F3F71F04795880F97FB991F61F09C
:100F00009F3F79F087950895121613061406551F12
:100F1000F2CF4695F1DF08C0161617061806991F7E
:100F2000F1CF86957105610508940895E894BB2773
:100F300066277727CB0197F908950EF0A6C0B2CFA8
:100F40006894AACFD9DFC8F39923D1F3C6F3DF930E
:100F5000CF931F930F93FF92C92FDD2788232AF089
:100F60002197660F771F881FDAF720E030E040E80E
:100F70005FEB9FE3883920F0803E30F021968F7739
:100F800029DEE4EEF0E003C025DEE1E1F1E08BD004
:100F90008B01BE01EC01FB2E6F5771097595771F10
:100FA000880B990B1ADF28E132E741E35FE316D0A3
:100FB000AF2D9801AE01FF900F911F91CF91DF915E
:100FC0001ADE81CF0BD07FCF70DF28F075DF18F0ED
:100FD000952309F061CF66CF1124A9CF85DFA0F357
:100FE000959FD1F3950F50E0551F629FF001729FBE
:100FF000BB27F00DB11D639FAA27F00DB11DAA1FDD
:10100000649F6627B00DA11D661F829F2227B00D29
:10101000A11D621F739FB00DA11D621F839FA00DB4
:10102000611D221F749F3327A00D611D231F849F04
:10103000600D211D822F762F6A2F11249F5750405B
:101040008AF0E1F088234AF0EE0FFF1FBB1F661FF6
:10105000771F881F91505040A9F79E3F510570F0AF
:101060001BCF65CF5F3FECF3983EDCF38695779519
:101070006795B795F795E7959F5FC1F7FE2B880FAA
:10108000911D9695879597F908959F3F31F091505E
:1010900020F4879577956795B795880F911D96955C
:1010A000879597F90895DF93CF931F930F93FF923E
:1010B000EF92DF927B018C01689405C0DA2EEF017C
:1010C0008DDFFE01E894A5912591359145915591CB
:1010D000AEF3EF0190DDFE019701A801DA9479F7F4
:1010E000DF90EF90FF900F911F91CF91DF910895C6
:1010F00097FB072E16F4009406D077FD08D02DD06C
:1011000007FC05D03EF4909581959F4F089570950A
:1011100061957F4F0895A1E21A2EAA1BBB1BFD010A
:101120000DC0AA1FBB1FEE1FFF1FA217B307E407C6
:10113000F50720F0A21BB30BE40BF50B661F771F1E
:10114000881F991F1A9469F76095709580959095FE
:101150009B01AC01BD01CF010895AA1BBB1B51E14E
:1011600007C0AA1FBB1FA617B70710F0A61BB70B17
:10117000881F991F5A95A9F780959095BC01CD01BC
:101180000895EE0FFF1F881F8BBF0790F691E02D8B
:061190001994F894FFCF52
:1011960000000000C4012F015C0110028D016B01EB
:0611A6007F010D0A0000AC
:00000001FF
