:1000000022C1000050C100004EC100004CC10000E0
:100010004AC1000048C1000046C1000044C10000C0
:1000200042C1000040C100003EC100003CC10000D0
:100030003AC1000038C1000036C1000034C10000E0
:1000400032C100009EC600002EC100002CC100007D
:100050002AC1000028C1000026C10000C1C500005F
:1000600022C1000087C500005CC500001CC1000063
:100070001AC1000018C1000016C1000014C1000020
:1000800053C6000010C100000EC100000CC10000EA
:100090000AC1000008C1000006C1000004C1000040
:1000A00002C1000000C1000012C60000FCC0000038
:1000B000FAC00000F8C00000F6C00000DBC5000078
:1000C000F2C00000F0C00000EEC00000ECC0000074
:1000D000EAC00000E8C00000E6C00000E4C0000084
:1000E000E2C0000008000000BE922449123EABAA04
:1000F000AA2ABECDCCCC4C3E00000080BEABAAAA42
:10010000AA3E00000000BF000000803F0000000089
:1001100000084178D3BB4387D1133D190E3CC3BDC2
:100120004282AD2B3E68EC8276BED98FE1A93E4C6F
:1001300080EFFFBE01C4FF7F3F0000000000000011
:100140000A0B02090C0D0E08070304010000000051
:10015000000000000000000000000000000000009F
:10016000000000000000000000001211100000005C
:10017000000000000000000000000000000000007F
:100180000000000000002200250028002B002E00A7
:100190003100340002010000050108010B010000DC
:1001A0002100240027002A002D0030003300010127
:1001B0000000040107010A010505050507050808F7
:1001C0000808020202020A0A0808040404040101E1
:1001D00001010101010103030303030303030407F6
:1001E00007070C0C0C0C0C0C0C0C0202020206068D
:1001F0000606060606060B0B0B0B0B0B0B0B010280
:100200001020200808102040102040800201020128
:1002100008040201010204081020408080402010E0
:100220000804020180040201804020100804020139
:1002300008040201010204081020408001020408A1
:1002400010204080EE0611241FBECFEFD1E2DEBFAA
:10025000CDBF00E00CBF12E0A0E0B2E0EEE0FBE1B9
:1002600000E00BBF02C007900D92A232B107D9F790
:1002700023E0A2E2B2E001C01D92AD36B207E1F781
:1002800011E0C3E2D1E000E006C021970109802F10
:10029000FE010E94630DC232D10780E00807A9F772
:1002A00014D60C94850DACCE90E0FC01E250FE4FCC
:1002B000249188549E4FFC018491882399F090E00A
:1002C000880F991FFC01E256FE4FA591B491FC01E5
:1002D000EC57FE4F859194918FB7F894EC91E22BF7
:1002E000EC938FBF0895AF92BF92CF92DF92EF92BF
:1002F000FF920F931F93CF93DF936C017B018B01D0
:10030000040F151FEB015E01AE18BF08C017D1071F
:1003100059F06991D601ED91FC910190F081E02DA9
:10032000C6011995892B79F7C501DF91CF911F91EE
:100330000F91FF90EF90DF90CF90BF90AF90089516
:10034000FC01538D448D252F30E0842F90E0821BDB
:10035000930B541710F0CF96089501970895FC0160
:10036000918D828D981761F0A28DAE0FBF2FB11DB8
:100370005D968C91928D9F5F9F73928F90E0089510
:100380008FEF9FEF0895FC01918D828D981731F0CA
:10039000828DE80FF11D858D90E008958FEF9FEF1E
:1003A0000895FC01918D228D892F90E0805C9F4FF4
:1003B000821B91098F739927089589E392E0F1DFF9
:1003C00021E0892B09F420E0822F0895FC01A48DFF
:1003D000A80FB92FB11DA35ABF4F2C91848D90E067
:1003E00001968F739927848FA689B7892C93A0894A
:1003F000B1898C91837080648C93938D848D9813D4
:1004000006C00288F389E02D80818F7D8083089566
:10041000EF92FF920F931F93CF93DF93EC0181E054
:10042000888F9B8D8C8D98131AC0E889F9898081FB
:1004300085FF15C09FB7F894EE89FF896083E8892E
:10044000F98980818370806480839FBF81E090E020
:10045000DF91CF911F910F91FF90EF900895F62EAD
:100460000B8D10E00F5F1F4F0F731127E02E8C8D47
:100470008E110BC00FB607FCFACFE889F98980818D
:1004800085FFF5CFCE01A2DFF2CFEB8DEC0FFD2F74
:10049000F11DE35AFF4FF0829FB7F8940B8FEA8962
:1004A000FB8980818062D0CFCF93DF93EC01888D70
:1004B0008823B1F0AA89BB89E889F9898C9185FDE7
:1004C00003C0808186FD0CC00FB607FCF7CF8C916E
:1004D00085FFF2CF808185FFEDCFCE0177DFEACFB8
:1004E000DF91CF91089580E090E0892B21F065DFC6
:1004F00081110E94000080E090E0892B49F080E0AB
:1005000090E0892B29F00E94000081110E940000D8
:1005100080E090E0892B49F080E090E0892B29F081
:100520000E94000081110E94000080E090E0892B71
:1005300049F080E090E0892B29F00E9400008111B1
:100540000C9400000895282F30E0F901E25CFE4F82
:100550009491F901E250FE4F449128543E4FF90125
:100560002491222309F435C0992311F1915092313D
:10057000F8F4E92FF0E08827EF53FD4F8F4F0C94EC
:10058000630DF202F602D302EA02EE02D802F90289
:10059000FF02030309030D03110317031B03D80212
:1005A0001F0325032903809180008F7780938000AB
:1005B000E22FF0E0EE0FFF1FEC57FE4FA591B49134
:1005C0008FB7F894EC91611148C040954E234C933D
:1005D0008FBF0895809180008F7DE8CF809180004B
:1005E000877FE4CF84B58F7784BDE2CF84B58F7DDC
:1005F000FBCF8091B0008F778093B000D9CF8091EE
:10060000B0008F7DF9CF809190008F77809390001C
:10061000CFCF809190008F7DF9CF80919000877F20
:10062000F5CF8091A0008F778093A000C1CF8091FB
:10063000A0008F7DF9CF8091A000877FF5CF8091BA
:1006400020018F7780932001B3CF809120018F7D8F
:10065000F9CF80912001877FF5CF4E2BB8CF86331D
:1006600008F0865320917B00982F9870277F922B5B
:1006700090937B008770806480937C0080917A00E7
:10068000806480937A0080917A0086FDFCCF80910F
:1006900078009091790008953FB7F89480912702EF
:1006A00090912802A0912902B0912A0226B5A89B18
:1006B00005C02F3F19F00196A11DB11D3FBFBA2FF4
:1006C000A92F982F8827BC01CD01620F711D811DB4
:1006D000911D42E0660F771F881F991F4A95D1F739
:1006E00008958F929F92AF92BF92CF92DF92EF9236
:1006F000FF924B015C01D0DF6B017C01CDDF6C19F7
:100700007D098E099F09683E734081059105B0F30C
:1007100021E0821A9108A108B10888EEC80E83E092
:10072000D81EE11CF11C81149104A104B10431F71D
:10073000FF90EF90DF90CF90BF90AF909F908F9001
:100740000895CF92DF92EF92FF92CF93DF93EC0167
:10075000603282E07807BCF5653B710514F064EB0C
:1007600070E0898128E830E0281B310987FD339546
:10077000220F331F220F331F6901330FEE08FF08CA
:100780008A8128E532E0281B310987FD3395220F45
:10079000331F220F331F032E000C440B550B2C1953
:1007A0003D094E095F09DB0177FF02C0B0E0A0E020
:1007B0009DD624EB30E040E050E072D6C20ED31E4E
:1007C000E41EF51EB601E881E03370F5298188E862
:1007D00090E0821B910927FD9395880F991F880F40
:1007E000991F681779077CF02A8188E592E0821BBF
:1007F000910927FD9395880F991F880F991F6817F6
:1008000079070CF4CB010297880F991F4FB7F89422
:100810002E2F30E0F901EE0FFF1FE20FF31FEA5217
:10082000FD4F928381834FBFDF91CF91FF90EF9077
:10083000DF90CF9008958130910581F4109280006F
:1008400082E0809381001092850010928400B19A1A
:1008500080916F00826080936F00089582309105CF
:1008600069F41092900082E08093910010929500BC
:100870001092940088BB8093710008958330910595
:1008800069F41092A00082E08093A1001092A5006C
:100890001092A40089BB809372000895892B61F4A3
:1008A0001092200182E08093210110922501109284
:1008B00024018ABB809373000895AF92BF92CF92B8
:1008C000DF92EF92FF920F931F93CF93DF936B0111
:1008D0007A01EC01CE5DDD4F28813CE0389F80013C
:1008E000399F100D1124A0906603B12C27FF1FC063
:1008F000FB011182108288818F5F88838881980133
:10090000280F311D87FD3A95F6012A153B051CF489
:1009100088818C30BCF180819181049680349C491F
:1009200008F471C0F6018081918104966EC08881BF
:100930009801280F311D87FD3A952A153B05DCF6F5
:100940008881A801480F511D87FD5A95FA01EE0FC5
:10095000FF1FE40FF51FEA52FD4F808186FFCBCFCA
:100960008881F801E80FF11D87FDFA95CF01EE0FA0
:10097000FF1FE80FF91FEA52FD4F808160E08F737F
:10098000E2DDB9CF808191812881A801420F511DFC
:1009900027FD5A959A01FA01EE0FFF1FE20FF31F90
:1009A000EA52FD4F21813281820F931FF70191831B
:1009B000808388819801280F311D87FD3A95F901C0
:1009C000EE0FFF1FE20FF31FEA52FD4F808186FFFB
:1009D00021C08881080F111D87FD1A95F801EE0FBF
:1009E000FF1FE00FF11FEA52FD4F808161E08F731E
:1009F000DF91CF911F910F91FF90EF90DF90CF90FB
:100A0000BF90AF90A0CD80E49CE9F70191838083F3
:100A10008FEF8883DF91CF911F910F91FF90EF901F
:100A2000DF90CF90BF90AF900895FC01019000201F
:100A3000E9F73197AF01481B590BBC0189E392E0FC
:100A400052CC8F929F92AF92BF920F931F93CF93EE
:100A5000DF93CDB7DEB7A1970FB6F894DEBF0FBE18
:100A6000CDBF19A2423008F44AE08E010F5D1F4F3E
:100A7000842E912CB12CA12CA50194013DD5E62FFB
:100A8000B901CA01EA30ECF4E05DD801EE938D01C2
:100A9000232B242B252B81F790E080E0109711F079
:100AA000CD01C3DFA1960FB6F894DEBF0FBECDBF58
:100AB000DF91CF911F910F91BF90AF909F908F903A
:100AC0000895E95CE2CFCF92DF92EF92FF92CF934D
:100AD000DF936C01990FEE08FF08F7FE1CC06DE272
:100AE00089E392E095DCEC0166277727CB016C194E
:100AF0007D098E099F094AE0A4DFC80FD91F82E152
:100B000092E093DF8C0F9D1FDF91CF91FF90EF90CC
:100B1000DF90CF9008954AE0C701B60192DFEC0163
:100B2000EECF1F920F920FB60F9211240BB60F92B9
:100B30002F933F934F935F936F937F938F939F93E5
:100B4000AF93BF93EF93FF9389E392E03FDCFF9174
:100B5000EF91BF91AF919F918F917F916F915F9135
:100B60004F913F912F910F900BBE0F900FBE0F90A2
:100B70001F9018951F920F920FB60F9211240BB66B
:100B80000F922F938F939F93EF93FF93E0914902DE
:100B9000F0914A028081E0914F02F091500282FD73
:100BA0001DC09081809152028F5F8F7320915302FC
:100BB000821741F0E0915202F0E0E75CFD4F958F23
:100BC00080935202FF91EF919F918F912F910F90FF
:100BD0000BBE0F900FBE0F901F9018958081F2CF23
:100BE0001F920F920FB60F9211242F933F938F9362
:100BF0009F93AF93BF9380912B0290912C02A09171
:100C00002D02B0912E023091260223E0230F2D37C2
:100C100058F50196A11DB11D2093260280932B0249
:100C200090932C02A0932D02B0932E028091270264
:100C300090912802A0912902B0912A020196A11D4B
:100C4000B11D8093270290932802A0932902B093AC
:100C50002A02BF91AF919F918F913F912F910F9059
:100C60000FBE0F901F90189526E8230F0296A11D26
:100C7000B11DD2CF1F920F920FB60F9211240BB657
:100C80000F922F933F934F935F936F937F938F9325
:100C90009F93AF93BF93EF93FF9348E251E064E2D9
:100CA00071E090E080E009DEFF91EF91BF91AF919C
:100CB0009F918F917F916F915F914F913F912F9174
:100CC0000F900BBE0F900FBE0F901F9018951F92A4
:100CD0000F920FB60F9211240BB60F922F933F93E2
:100CE0004F935F936F937F938F939F93AF93BF9334
:100CF000EF93FF9348EA50E064EA70E083E090E00D
:100D0000DCDDFF91EF91BF91AF919F918F917F912A
:100D10006F915F914F913F912F910F900BBE0F906C
:100D20000FBE0F901F9018951F920F920FB60F9243
:100D300011240BB60F922F933F934F935F936F93B2
:100D40007F938F939F93AF93BF93EF93FF9348E964
:100D500050E064E970E082E090E0AFDDFF91EF9158
:100D6000BF91AF919F918F917F916F915F914F91C3
:100D70003F912F910F900BBE0F900FBE0F901F90C1
:100D800018951F920F920FB60F9211240BB60F9267
:100D90002F933F934F935F936F937F938F939F9383
:100DA000AF93BF93EF93FF9348E850E064E870E09F
:100DB00081E090E082DDFF91EF91BF91AF919F9133
:100DC0008F917F916F915F914F913F912F910F90F4
:100DD0000BBE0F900FBE0F901F90189510923C0203
:100DE00010923B0288EE93E0A0E0B0E080933D02D9
:100DF00090933E02A0933F02B093400284E092E0C1
:100E000090933A028093390285EC90E090934602E9
:100E10008093450284EC90E09093480280934702CF
:100E200080EC90E090934A028093490281EC90E03C
:100E300090934C0280934B0282EC90E090934E0290
:100E400080934D0286EC90E09093500280934F0285
:100E500010925202109253021092540210925502B4
:100E600080916603803348F591E0980F9093660374
:100E700080936A0390E0FC01EE0FFF1FE80FF91F5B
:100E8000EA52FD4F88EB9BE0928381838091660359
:100E90008033B8F491E0980F9093660380936703D2
:100EA00090E0FC01EE0FFF1FE80FF91FEA52FD4F23
:100EB00088EB9BE09283818308958FEF80936A0390
:100EC000E5CF8FEF809367030895CF93DF9300D032
:100ED00000D0CDB7DEB7789484B5826084BD84B588
:100EE000816084BD85B5826085BD85B5816085BD25
:100EF00080916E00816080936E00109281008091DD
:100F00008100826080938100809181008160809364
:100F10008100809180008160809380008091B10089
:100F200084608093B1008091B00081608093B000B4
:100F30008091910082608093910080919100816006
:100F400080939100809190008160809390008091C7
:100F5000A10082608093A1008091A10081608093B4
:100F6000A1008091A00081608093A0008091210168
:100F70008260809321018091210181608093210111
:100F80008091200181608093200180917A008460AB
:100F900080937A0080917A00826080937A008091B9
:100FA0007A00816080937A0080917A0080688093D3
:100FB0007A001092C10080916A03803308F03FC02C
:100FC0008CE072D980916A03282F30E0F901EE0F8E
:100FD000FF1FE20FF31FEA52FD4F9081907C9C604F
:100FE000908310926B0310926C032CE0622F4CD50F
:100FF00090E0829FB001112430E020E0AB01420F6D
:10100000531FFA01EE0FFF1FE40FF51FEA52FD4FC9
:10101000408146FD06C02F5F3F4F2C30310571F7F0
:101020000ADCE0916A038E2F90E0FC01EE0FFF1FB7
:10103000E80FF91FEA52FD4F808180648083809120
:101040006703803308F03FC08BE02ED9809167039F
:10105000282F30E0F901EE0FFF1FE20FF31FEA52D5
:10106000FD4F9081907C9B6090831092680310925A
:1010700069032CE0622F08D590E0829FB001112413
:1010800030E020E0AB01420F531FFA01EE0FFF1FCB
:10109000E40FF51FEA52FD4F408146FD06C02F5F69
:1010A0003F4F2C30310571F7C6DBE09167038E2F7F
:1010B00090E0FC01EE0FFF1FE80FF91FEA52FD4F11
:1010C0008081806480838DE0EFD8E0914902F091C7
:1010D0004A0282E08083E0914502F091460210824C
:1010E000E0914702F09148028FEC80831092510208
:1010F000E0914D02F0914E0286E08083E0914B0238
:10110000F0914C02808180618083E0914B02F091EC
:101110004C02808188608083E0914B02F0914C0208
:10112000808180688083E0914B02F0914C02808145
:101130008F7D808388248A9483E0982EA12CB12C03
:10114000CE0101961C01FE013596FE83ED832FB77B
:10115000F89460912B0270912C0280912D02909155
:101160002E022FBF28EE33E040E050E0C5D1CA0187
:10117000B901F5D26B017C01C0923502D0923602E2
:10118000E0923702F0923802B9D2CB0165E070E00C
:1011900087D48C0190933402809333028FE05FDA1E
:1011A000909332028093310280E059DABC01990FAA
:1011B000880B990BD6D220E030E040EA5BE3CAD33B
:1011C0009B01AC0160E070E080EA90E42FD220E067
:1011D00030E040E85FE3C1D19B01AC0160E070E426
:1011E0008CE196E423D220E030E44CE156E41ED2B8
:1011F00071D32BEB37E845E551E4B0D19B01AC014D
:1012000060E070E988E795E411D220E030E848E832
:1012100053E4A3D12B013C0149825A826B827C8228
:1012200068EE73E080E090E05CDA81E018DA24EBAD
:1012300030E0DC0150D4A501940132D1B9018AE635
:1012400093E07FDA6FE070E080E090E04ADA82E0DD
:1012500006DA24EB30E0DC013ED4A501940120D174
:10126000B90187E693E06DDA6FE070E080E090E02E
:1012700038DA0115110509F07CC020E030E0A90141
:10128000C701B601CFD1882309F473C0C301B201ED
:101290003AD280912F0290913002F4D080912F02A7
:1012A0009091300210DCE0902F02F090300261014A
:1012B000E218F308C7018C0D9D1DDCD0F601819367
:1012C0006F018D819E818E179F07A1F7C980DA80FB
:1012D000EB80FC80A7019601C701B6019ED388234D
:1012E00009F449C085E192E0A0DB82E192E09DDB58
:1012F00080912F0290913002049690933002809357
:101300002F0260913102BED080912F029091300265
:10131000DADBE0902F02F0903002C701ABD080936F
:101320003102C7010196A6D080933202809131022A
:1013300090913202C8DB80912F0290913002049686
:101340009093300280932F028115904169F460E000
:10135000C80198D00F5F1F4F0115F0E11F07B9F7C3
:101360001092300210922F0268EE73E080E090E05D
:10137000B8D9B9D8ECCE26013701E89477F82FEF29
:101380003FEF4FE75FE7C301B20147D381110CC0C4
:101390002FEF3FEF4FE75FE7C301B20143D11816CC
:1013A0001CF489E192E0A0CF2FEF3FEF4FE75FE41D
:1013B000C701B60186D218161CF48DE192E094CFD5
:1013C0002FEF3FEF4FE75FECC701B6012BD187FD51
:1013D000F4CF20E030E0A901C701B60123D187FF97
:1013E00008C06DE289E392E013D8F7FAF094F7F8B9
:1013F000F0942AE037ED43EA5BE3C701B601AED0D3
:101400002B013C0180D16B017C01A9D19B01AC0176
:10141000C301B201A2D02B013C014AE0C701B601D1
:1014200010DB6EE289E392E00E94080220E030E0E7
:1014300040E251E4C301B2018DD22B013C0163D1E2
:101440006B01F12CE12C4AE0C701B601FADAC701C1
:10145000B60185D19B01AC01C301B2017ED020E071
:1014600030E040E251E476D24ED190E080E04AE0B4
:10147000E8DA3BCFF999FECF92BD81BDF89A992762
:1014800080B50895262FF999FECF1FBA92BD81BD70
:1014900020BD0FB6F894FA9AF99A0FBE01960895F6
:1014A000052E97FB16F400940FD057FD05D024D0DD
:1014B00007FC02D046F408C0509540953095219520
:1014C0003F4F4F4F5F4F0895909580957095619570
:1014D0007F4F8F4F9F4F089531D0A59F900DB49FA0
:1014E000900DA49F800D911D11240895B7FFF4CF96
:1014F000F3DF821B930B0895A1E21A2EAA1BBB1BDC
:10150000FD010DC0AA1FBB1FEE1FFF1FA217B307CF
:10151000E407F50720F0A21BB30BE40BF50B661FE5
:10152000771F881F991F1A9469F7609570958095A9
:1015300090959B01AC01BD01CF010895A29FB00120
:10154000B39FC001A39F700D811D1124911DB29FF7
:10155000700D811D1124911D08955058BB27AA2795
:101560000ED075C166D130F06BD120F031F49F3FC1
:1015700011F41EF45BC10EF4E095E7FB51C1E92FB5
:1015800077D180F3BA17620773078407950718F0BD
:1015900071F49EF58FC10EF4E0950B2EBA2FA02D9D
:1015A0000B01B90190010C01CA01A0011124FF2710
:1015B000591B99F0593F50F4503E68F11A16F0400B
:1015C000A22F232F342F4427585FF3CF469537950A
:1015D0002795A795F0405395C9F77EF41F16BA0BCF
:1015E000620B730B840BBAF09150A1F0FF0FBB1F7D
:1015F000661F771F881FC2F70EC0BA0F621F731FC6
:10160000841F48F4879577956795B795F7959E3F22
:1016100008F0B3CF9395880F08F09927EE0F9795B0
:1016200087950895D9D008F481E008950CD00FC1B2
:1016300007D140F0FED030F021F45F3F19F0F0C048
:10164000511139C1F3C014D198F39923C9F355232B
:10165000B1F3951B550BBB27AA27621773078407A5
:1016600038F09F5F5F4F220F331F441FAA1FA9F35B
:1016700033D00E2E3AF0E0E830D091505040E6954D
:10168000001CCAF729D0FE2F27D0660F771F881FAE
:10169000BB1F261737074807AB07B0E809F0BB0B9D
:1016A000802DBF01FF2793585F4F2AF09E3F5105C1
:1016B00068F0B6C000C15F3FECF3983EDCF386955E
:1016C00077956795B795F7959F5FC9F7880F911D37
:1016D0009695879597F90895E1E0660F771F881F23
:1016E000BB1F621773078407BA0720F0621B730BD6
:1016F000840BBA0BEE1F88F7E095089504D0689428
:10170000B111D9C00895BCD088F09F5790F0B92F7F
:101710009927B751A0F0D1F0660F771F881F991F46
:101720001AF0BA95C9F712C0B13081F0C3D0B1E058
:101730000895C0C0672F782F8827B85F39F0B93F68
:10174000CCF3869577956795B395D9F73EF4909548
:101750008095709561957F4F8F4F9F4F0895E894C6
:1017600009C097FB3EF490958095709561957F4FE9
:101770008F4F9F4F9923A9F0F92F96E9BB27939597
:10178000F695879577956795B795F111F8CFFAF4A7
:10179000BB0F11F460FF1BC06F5F7F4F8F4F9F4FD8
:1017A00016C0882311F096E911C0772321F09EE836
:1017B000872F762F05C0662371F096E8862F70E09C
:1017C00060E02AF09A95660F771F881FDAF7880F76
:1017D0009695879597F90895990F0008550FAA0BCC
:1017E000E0E8FEEF16161706E807F907C0F0121634
:1017F0001306E407F50798F0621B730B840B950B37
:1018000039F40A2661F0232B242B252B21F408958B
:101810000A2609F4A140A6958FEF811D811D089528
:1018200097F99F6780E870E060E008959FEF80EC93
:10183000089500240A941616170618060906089536
:1018400000240A9412161306140605060895092E9C
:101850000394000C11F4882352F0BB0F40F4BF2B0B
:1018600011F460FF04C06F5F7F4F8F4F9F4F08954B
:1018700057FD9058440F551F59F05F3F71F0479541
:10188000880F97FB991F61F09F3F79F08795089526
:10189000121613061406551FF2CF4695F1DF08C045
:1018A000161617061806991FF1CF86957105610562
:1018B00008940895E894BB2766277727CB0197F90A
:1018C00008958ADF08F48FEF08950EF0AAC0AECF16
:1018D0006894A6CFD5DFC8F39923D1F3C6F3DF937D
:1018E000CF931F930F93FF92C92FDD2788232AF0F0
:1018F0002197660F771F881FDAF720E030E040E875
:101900005FEB9FE3883920F0803E30F021968F779F
:1019100025DEE4EEF0E003C021DEE1E1F1E08FD06E
:101920008B01BE01EC01FB2E6F5771097595771F76
:10193000880B990B16DF28E132E741E35FE316D00D
:10194000AF2D9801AE01FF900F911F91CF91DF91C4
:1019500016DE7DCF0BD07BCF6CDF28F071DF18F067
:10196000952309F05DCF62CF1124A5CF81DFA0F3CD
:10197000959FD1F3950F50E0551F629FF001729F24
:10198000BB27F00DB11D639FAA27F00DB11DAA1F43
:10199000649F6627B00DA11D661F829F2227B00D90
:1019A000A11D621F739FB00DA11D621F839FA00D1B
:1019B000611D221F749F3327A00D611D231F849F6B
:1019C000600D211D822F762F6A2F11249F575040C2
:1019D0008AF0E1F088234AF0EE0FFF1FBB1F661F5D
:1019E000771F881F91505040A9F79E3F510570F016
:1019F00017CF61CF5F3FECF3983EDCF38695779588
:101A00006795B795F795E7959F5FC1F7FE2B880F10
:101A1000911D9695879597F90895DEDE880B990BB1
:101A200008959F3F31F0915020F487957795679501
:101A3000B795880F911D9695879597F90895DF932F
:101A4000CF931F930F93FF92EF92DF927B018C0154
:101A5000689405C0DA2EEF0189DFFE01E894A591B4
:101A60002591359145915591AEF3EF0188DDFE0149
:101A70009701A801DA9479F7DF90EF90FF900F912A
:101A80001F91CF91DF910895991B79E004C0991FB0
:101A9000961708F0961B881F7A95C9F780950895C8
:101AA00097FB072E16F4009406D077FD08D019D0C6
:101AB00007FC05D03EF4909581959F4F0895709551
:101AC00061957F4F0895EE0FFF1F881F8BBF079012
:101AD000F691E02D199432DDB7FF0895821B930B28
:101AE0000895AA1BBB1B51E107C0AA1FBB1FA61765
:101AF000B70710F0A61BB70B881F991F5A95A9F7B7
:0E1B000080959095BC01CD010895F894FFCF1B
:101B0E000000000008027301A0015402D101AF01D0
:101B1E00C3010D0A006E616E00696E66006F766617
:021B2E000000B5
:00000001FF
